S0170000526574726F6E6963615F312E302E332E7372656317
S11300005AC074C073C0EEC271C070C06FC06EC0FD
S11300106DC05FCC6BC06AC069C068C067C066C091
S113002065C064C063C026002600A600FE0B2E0037
S11300302E002600DF0B360036002E00B00B3E00EB
S11300403E00A600500B460046003E00E70A4E0064
S11300504E004600BA0A560056004E00650A5E007D
S11300605E00A600300A660066005E00190A6E0093
S11300706E006600020A760076006E00D7097E00E4
S11300807E007600A109860086007E0058098E0055
S11300908E0086000D09960096008E00AF089E0023
S11300A09E0096008208AE00AE00AE004508000037
S11300B000000000000011241FBECFE5D4E0DEBF25
S11300C0CDBF10E0A0E6B0E0E6E3FBE102C005909E
S11300D00D92AC36B107D9F720E0ACE6B0E001C030
S11300E01D92A93CB207E1F702D623CD89CFE1DB0B
S11300F020916D0030916E00821B930B0397A0F149
S1130100D8DB90936E0080936D0080916C008F5FBC
S113011080936C00959A80916C00853108F09598D5
S113012080916C00893208F0959A80916C008D332F
S113013008F0959880916C00813508F0959A80912B
S11301406C00853608F0959880916C00893708F02A
S1130150959A80916C008D3808F0959880916C0088
S11301608F3F11F410926C000895959880E00895E3
S1130170A0DB20917400309175008217930709F475
S11301805EC093B39E70809173009E3099F1893163
S113019018F48F5F8093730080917300893109F0A4
S11301A049C083B38E7080937200209170003091A7
S11301B07100243F314050F420917000309171005F
S11301C02F5F3F4F30937100209370002091700097
S11301D030917100233F314069F591E090936F00B5
S11301E08A3079F18C3021F0863021F583E008954E
S11301F084E008958823F1F0815080937300109275
S1130200710010927000811115C080916F008130CF
S113021019F410926F000EC0809172008A3099F028
S11302208C3021F0863021F480E0089581E0089537
S1130230109272003EDB909375008093740086E008
S1130240089585E0089582E00895F89494988C9A2E
S11302508FE797E00197F1F700C000008C98EFEE6C
S1130260F0E03197F1F700C0000080B3EFE8F6E06A
S11302703197F1F700C0000078948071089599E0F7
S113028080E09150F1F0F89494988C9A25E02A95A6
S1130290F1F700008C982AE42A95F1F700C040B3E6
S11302A020EF2A95F1F7789444FB222720F930E0D7
S11302B0A9015695542F4427579547958695842B25
S11302C0E0CF089599E09150B9F0F89494988C9AFD
S11302D025E02A95F1F7000080FD8C98EFEEF0E020
S11302E03197F1F700C000008C9878948695F5E07A
S11302F0FA95F1F70000E7CF0895A7DF811106C052
S11303008CECE0DF84E4DEDF81E0089580E0089592
S11303100F931F93CF93DF938C0197DF8CECD2DF85
S11303208EEBD0DFACDFD82FAADFC82F8EDFC7FF5C
S113033004C0F8011182108220C04D2F4F7021E7B4
S113034032E0429FC001439F900D11248C509E4F78
S113035068EE73E054DBD295DF70F0E1CF9FC0010B
S113036011248D2B4AE0489F9001499F300D1124A0
S1130370620F731FF80171836083DF91CF911F9126
S11303800F9108950F931F93CF93DF9383E190E030
S1130390ABDB8433924109F443C088B3807F88BBCC
S11303A082B3807F82BBC0E0D0E067E0CE01A1DBF6
S11303B06EE1CE0104969DDB60E0CE01089699DBE8
S11303C0219680E0C430D80781F760E08CE090E0AB
S11303D090DB60E08DE090E08CDB60E08EE090E00C
S11303E088DB61E08FE090E084DB61E080E190E015
S11303F080DB61E081E190E07CDB60E082E190E021
S113040078DB60E070E085E190E080DB60E070E044
S113041082E390E07BDB64E372E183E190E076DBEE
S113042000E010E0C3E9D0E0C80156DB8883C801CE
S1130430049652DB8983C80108964EDB8A830F5FDA
S11304401F4F239620E0CF39D20771F78CE090E05C
S113045043DB8093BD008DE090E03EDB8093BC00E5
S11304608EE090E039DB8093BE008FE090E034DBD7
S11304708093B30080E190E02FDB8093B40081E1AE
S113048090E02ADB8093B50082E190E025DB809345
S1130490BF0085E190E028DB9093AD008093AC0031
S11304A0DF91CF911F910F910895AF92BF92DF9288
S11304B0EF92FF920F931F93CF93DF9388B3807FC4
S11304C088BB82B3807F82BBC3E9D0E000E010E048
S11304D08FE9A82E80E0B82EF880C801FDDAF8165E
S11304E019F06F2DC80105DBD980780184E0E80E8E
S11304F0F11CC701F1DAD81619F06D2DC701F9DA2C
S1130500DA80780188E0E80EF11CC701E5DAD81634
S113051019F06D2DC701EDDA23960F5F1F4FAC164E
S1130520BD06D1F6C091BD008CE090E0D5DAC817C5
S113053021F06C2F8CE090E0DCDAC091BC008DE0FF
S113054090E0CADAC81721F06C2F8DE090E0D1DA80
S1130550C091BE008EE090E0BFDAC81721F06C2F86
S11305608EE090E0C6DAC091B3008FE090E0B4DA98
S1130570C81721F06C2F8FE090E0BBDAC091B40073
S113058080E190E0A9DAC81721F06C2F80E190E0B7
S1130590B0DAC091B50081E190E09EDAC81721F08D
S11305A06C2F81E190E0A5DAC091BF0082E190E078
S11305B093DAC81769F06C2F82E190E0DF91CF9154
S11305C01F910F91FF90EF90DF90BF90AF9091CA71
S11305D0DF91CF911F910F91FF90EF90DF90BF902B
S11305E0AF9008951F920F920FB60F9211242F937C
S11305F03F934F938F939F93AF93BF93EF93FF9347
S113060088B3807F88BB82B3807F82BB96988FE853
S113061091E00197F1F700C00000809178008F5FAE
S113062080937800823321F481E08093770006C0C0
S1130630843621F41092770010927800809176002D
S113064090E0FC01EE0FFF1FDF01A80FB91FA156B8
S1130650BF4F11962C91222321F020917700222361
S1130660A1F122B38E0F9F1FFC01E156FF4F808141
S1130670822B82BB48B38091760023E030E0281BB4
S1130680310981E090E001C0880F2A95EAF7842BB4
S113069088BB9091AF0080917600992329F09091C6
S11306A0AB00981312C010C090E0FC01EE0FFF1FC6
S11306B08E0F9F1FFC01ED56FF4F8281882329F086
S11306C08091C000811101C0969A809176008F5F5D
S11306D0843019F08093760002C010927600FF9166
S11306E0EF91BF91AF919F918F914F913F912F9136
S11306F00F900FBE0F901F90189585B58F6085BD24
S113070082E383BD89B7806889BF0895CF92DF9261
S1130710EF92FF920F931F93CF93DF93FB012CE390
S113072030E0B90158D96B01AC016FEF649FC0018F
S1130730659F900D1124B9014ED97B0120917B0056
S1130740022F10E0CFEFD0E0AE01461B570B409FC5
S1130750C001419F900D509F900D1124BE014FD9AF
S1130760462FE09EC001E19E900DF09E900D112455
S1130770BE0145D9C62F362FC60166E070E02BD9DD
S11307808330910599F040F48130910561F002972E
S1130790A9F48C2F322F0CC08430910559F00597A1
S11307A069F4842F09C0322F242F08C0822F342FDC
S11307B020E005C0822F2C2F30E001C080E0308380
S11307C021838283DF91CF911F910F91FF90EF904E
S11307D0DF90CF900895EF92FF920F931F93CF93E2
S11307E0DF93CDB7DEB72C970FB6F894DEBF0FBEFC
S11307F0CDBF8091B300823069F0833081F18130C4
S113080009F070C0F8941CE080E0B4D81150E1F70E
S1130810789468C0BE016F5F7F4F8091AC00909167
S1130820AD0074DFF8941CE08981A4D88A81A2D831
S11308308B81A0D81150C1F778948091AC0090912D
S1130840AD0001969093AD008093AC008836914042
S113085009F048C01092AD001092AC0043C0BE0134
S11308606F5F7F4F8091AC009091AD004FDF80911E
S1130870AC009091AD00BE016C5F7F4F865A9F4FD4
S113088045DF8091AC009091AD00BE01695F7F4F60
S11308908C549F4F3BDF8091AC009091AD00BE0122
S11308A0665F7F4F825F9E4F31DFF8948E010F5F4A
S11308B01F4F7E018DE0E80EF11CF80181918F013C
S11308C059D80E151F05C9F778948091AC00909102
S11308D0AD0001969093AD008093AC0088369140B2
S11308E009F4B8CF2C960FB6F894DEBF0FBECDBF77
S11308F0DF91CF911F910F91FF90EF900895D9D779
S11309002091790030917A00821B930B20917C0016
S113091030917D008217930730F0CBD790937A0003
S11309208093790058CF08958091B400833091F07A
S113093038F4813061F08230B1F483E590E00FC087
S1130940843059F0853079F485E090E008C08CE17A
S113095090E005C087EA90E002C083E896E09093B7
S11309607D0080937C008091B500823059F020F4A2
S1130970813069F48FEF09C0833031F0843039F469
S113098088E103C080E801C083E380937B00809109
S1130990B300813019F41092B20003C081E0809357
S11309A0B20019CF1092B2006091AC007091AD000A
S11309B085E190E0ABC881E08093B20060E070E034
S11309C085E190E0A3C820E08E3A920771F0009789
S11309D061F090936100809360000696FC0185911C
S11309E09491009711F0FC010994089584B78093C1
S11309F0C90014BE0FB6F894A89581B5886181BD6D
S1130A0011BC0FBE089580E02ED78093B60081E01C
S1130A102AD78093B80082E026D7982F92959F70AA
S1130A208F702AE0929F800D11248093B7008091EB
S1130A30B800982F92959F708F704AE0949F800D14
S1130A4011248093B80080918300882339F0809129
S1130A50B600893519F489DB809383008091B60050
S1130A60882329F09091C10091111BC049C02091A5
S1130A70B7003091B80090918300E3E9F0E042813F
S1130A80413039F44081421304C04181431301C011
S1130A9091E0339640E0EF39F40789F790938300AF
S1130AA0E1CF853269F51092C1008091C500909123
S1130AB0C600A091C700B091C80080589649A849C3
S1130AC0B1098093C5009093C600A093C700B0936A
S1130AD0C8008091BF00181614F486E203C088236E
S1130AE019F084E28093B6006091B600862F829557
S1130AF08F706F709AE0899F600D112480E09AD600
S1130B009091BC008091B600992329F19BEF980F36
S1130B109B3020F09BEC980F9B30E8F481E08093AD
S1130B20C00084E0A0D68093BA0085E09CD6809370
S1130B30B900A89A9091BA00292F22952F7020937A
S1130B409F009F709093A200982F92959F7090930E
S1130B50A5008F707EC09091BD00992309F47CC0DC
S1130B6097EE980F9B3018F089548B30B8F4C5DB9E
S1130B70809384009ED690938A008093890080910C
S1130B808400811106C087EE93E0909388008093DF
S1130B9087008091BD00882309F45EC08091B6006F
S1130BA090EE980F953020F08055853008F054C0B1
S1130BB0409187005091880020917E0030917F0001
S1130BC0CA01821B930BBC0197FF04C066277727D9
S1130BD0681B790B653171052CF050937F004093AD
S1130BE07E0010C043E0220F331F4A95E1F7820FC5
S1130BF0931F53E0969587955A95E1F790937F005C
S1130C0080937E0080917E0090917F00883E934087
S1130C1030F087EE93E090937F0080937E0081E034
S1130C208093C000A89AE0917E00F0917F00CF01EC
S1130C3064E670E0D0D660939F002AE030E0B9010A
S1130C40CAD66093A200CF01B901C5D68093A5008E
S1130C508AE08093A80008951092C0008091BE009D
S1130C60882339F08091B7008C3018F08C50809331
S1130C70B7008091B600811106C08091B80065E08C
S1130C8091D6992321F0809186008823D9F010927F
S1130C9086000FD690938C0080938B0081E0809324
S1130CA085008091B7002AE0622F7CD68093A10052
S1130CB09093A4008091B80075D68093A700909378
S1130CC0AA0010C08091B7002AE0622F6BD68093EF
S1130CD09F009093A2008091B80064D68093A500F1
S1130CE09093A80095B381E0892785BB0895CF939D
S1130CF0DF93CDB7DEB72C970FB6F894DEBF0FBEE7
S1130D00CDBF74DE46D687B38F6087BBA09A81B30C
S1130D108F6681BB85B38E6085BBC59AF3D5EDDC48
S1130D20FAD5ADD578948091C90083FD27C01C867F
S1130D301B8682E08093B30085E08093B40081E059
S1130D408093B500F1DD10E0B4D588309740F8F415
S1130D501093A8001093A5001093A20010939F0075
S1130D60CEDDA7D52B853C85821B930B843B910557
S1130D7058F39FD59C878B871F5FE6CF82E390E073
S1130D80B3D6BC016F5F7F4F82E390E0BFD6FADA3F
S1130D9090D589309740E0F38091AC009091AD00FC
S1130DA0892B21F0C1DD1092B20001C0BDDD81E0CC
S1130DB08093860086EA90E006DE9FE088E10FB625
S1130DC0F894A89581BD0FBE91BD01E0FF24FA946B
S1130DD0A895B59B25C080918200811121C0009304
S1130DE082002091C3003091C4008091C50090918D
S1130DF0C600A091C700B091C800820F931FA11D27
S1130E00B11D8093C5009093C600A093C700B09312
S1130E10C80080389649A849B10510F00093C10074
S1130E20B5990FC080918200882359F010928200F6
S1130E308091B000811105C080918500811101C0AD
S1130E40E2DD8091C200882369F033D520918D00C2
S1130E5030918E00821B930B8938934118F086EAF7
S1130E6090E0B1DD8091B200811149DD8091830071
S1130E7081113DD980918500882309F44BC08AE013
S1130E80E2E6F0E0DE01119601900D928A95E1F719
S1130E908091810090E0FC01EE0FFF1F8E0F9F1FD9
S1130EA0FC01E156FF4F80918000A1E0B0E0AC0F5F
S1130EB0BD1FA80FB11D8C918083FBD420918B00A2
S1130EC030918C00821B930BC39720F1F2D4909342
S1130ED08C0080938B00809180008F5F80938000D2
S1130EE08A30C1F480918100E82FF0E09F01220F45
S1130EF0331FE20FF31FE156FF4F928190838F5F00
S1130F008093810010928000843021F4109281003B
S1130F101092850080918400882379F0CAD42091AE
S1130F20890030918A00821B930B8F3E924028F0F7
S1130F301092840087E890E0EBD91AD9182F809199
S1130F408300882339F0163009F442CF0ED98093F8
S1130F5083003ECF163009F43BCF0093C200A9D4DE
S1130F6090938E0080938D00123009F44FC028F4C2
S1130F70112359F0113099F12BCF143009F43BC0EF
S1130F8018F1153009F46BC023CF0093B1008091A0
S1130F90B000882341F0E0916000F0916100329646
S1130FA08591949110DD8091B000811111CF8091D1
S1130FB0B300813009F40CCF8091B200813011F478
S1130FC0F1DC06CFF8DC04CF1092B1008091B000C0
S1130FD08111FECE1092850086E390E04AC0F09223
S1130FE0B1008091B000882309F4F2CEE091600052
S1130FF0F091610031C01092B1008091B000811174
S1131000E7CE1092850086E590E033C01092B100DF
S11310108091B000882309F4DBCE823079F480918A
S1131020AB0090E0FC01EE0FFF1F8E0F9F1FFC0131
S1131030ED56FF4F828181110AC006C0813039F418
S11310408091B300813019F486EA90E012C0E091F7
S11310506000F09161003496859194910AC01092D9
S1131060B1008091B0008111B3CE109285008EE959
S113107090E0A9DCADCEFC018081861714F4408396
S1131080089548170CF4608308958091AE00882376
S113109069F060E080E0CED31092AE001092C500FB
S11310A01092C6001092C7001092C8001092A900B6
S11310B01092A6001092A3001092A0001092C200F9
S11310C01092AF001092C000A091BF000A2E000C35
S11310D0BB0B20E836E948E950E0C0D420E831E50C
S11310E041E050E09FD4C90137FF04C08827992705
S11310F0821B930B9093C4008093C3001092B000A2
S1131100D4D981CC83E08093B00081E08093C00087
S11311109091B100992329F09091BE008927809382
S1131120BE0082E0A0D38093B700A89881E08093AA
S1131130A3008093A0009091BE00911105C082E0AD
S113114080939F0084E003C080939F0082E080939B
S1131150A2008AE08093A8008093A500089582E00D
S113116082D38093B70081E07ED38093B8008091CE
S1131170B700982F92959F708F702AE0929F800DF0
S113118011248093B7008091B1008823B1F081E0ED
S11311908093AE0060E880E04DD39091B7008091D9
S11311A0B100890F8093B70047E160E087EB90E0DE
S11311B062DF6091B70082E03DD3A89A8091BE00BF
S11311C0811106C081E08093A3008093A00012C027
S11311D08091B7008C3048F08C508093B700109207
S11311E0A00081E08093A30005C081E08093A0006B
S11311F01092A3008091B7006AE0D4D380939F003B
S11312009093A2008091B800982F92959F7090932C
S1131210A5008F708093A800089581E024D3982FAF
S113122092959F708F702AE0929F800D1124809375
S1131230B8008091B1008823B1F081E08093AE00C2
S113124060E880E0F7D29091B8008091B100890FF6
S11312508093B8004BE360E088EB90E00CDF609192
S1131260B80081E0E7D28091BE00882339F08091F4
S1131270B7008C3018F08C508093B7001092A30004
S11312801092A00081E08093A9008093A600809131
S1131290B7002AE0622F86D380939F009093A20028
S11312A08091B8007FD38093A5009093A8000895FF
S11312B08091AE00882329F060E080E0BBD21092D8
S11312C0AE0084E0D0D28093BA0085E0CCD2809383
S11312D0B9008091BA00982F92959F708F702AE080
S11312E0929F800D11248093BA009091B1009923AC
S11312F061F0890F8093BA004FE161E08AEB90E0DE
S1131300BADE6091BA0084E095D281E08093A300B4
S11313108093A0001092A9001092A6008091BA00B8
S11313206AE040D380939F009093A2008091B9001B
S1131330982F92959F709093A5008F708093A8002A
S1131340089585E090D2982F92959F708F702AE02F
S1131350929F800D11248093B9009091B10099233C
S113136061F0890F8093B9004CE061E089EB90E073
S113137082DE6091B90085E05DD21092A3001092E4
S1131380A00081E08093A9008093A6008091BA0018
S11313902AE0622F07D380939F009093A20080914C
S11313A0B90000D38093A5009093A800089586E027
S11313B05AD2982F92959F708F702AE0929F800D39
S11313C011248093BB009091B100992361F0890F9F
S11313D08093BB0043E660E08BEB90E04CDE6091D1
S11313E0BB0086E027D2A89882E080939F001092E9
S11313F0A2008091BB006AE0D5D28093A5009093AF
S1131400A80008958091B100882331F09091BC0028
S113141081E089278093BC0081E080939F008AE06B
S11314208093A2008093A5008091BC008093A800C3
S113143008958091B100882331F09091BD0081E03E
S113144089278093BD0082E080939F008AE0809387
S1131450A2008093A5008091BD008093A800089508
S11314608091B100882351F09091BF00890F80933F
S1131470BF0043E66DE98FEB90E0FDDD2091BF00F6
S113148027FF02C0A89A01C0A89883E080939F0018
S11314906AE06093A200822F91D2082E000C990B6F
S11314A097FF03C09195819591098093A500822FA0
S11314B06AE084D2892F990F990B97FF03C0919505
S11314C0819591098093A8000895A89A83E0809358
S11314D0B00081E08093AF008091B100882351F087
S11314E09091AB00890F8093AB0043E060E08BEAFE
S11314F090E0C1DD8091BE002091AB008823B9F05B
S1131500822F90E0FC01EE0FFF1F8E0F9F1FFC0146
S1131510ED56FF4F80818C3050F090E00C976AE0DC
S113152070E06DD260939F008093A20011C0822F5F
S113153090E0FC01EE0FFF1F8E0F9F1FFC01ED5684
S1131540FF4F80816AE02ED280939F009093A20087
S1131550822F90E0FC01EE0FFF1F8E0F9F1FFC01F6
S1131560ED56FF4F81816AE01DD28093A5009093D0
S1131570A8000895A89882E08093B0001092AF006C
S11315809091B1008091AB00992369F0E82FF0E0CD
S11315909F01220F331FE20FF31FED56FF4F2281ED
S11315A091E0922792839AE090939F009093A200F7
S11315B09093A50090E0FC01EE0FFF1F8E0F9F1F7C
S11315C0FC01ED56FF4F82818093A8000895A89AEC
S11315D083E08093B0002091B100222389F08091B0
S11315E0AB0090E0AC01440F551F840F951F8D563E
S11315F09F4FFC013081230F208347E160E03BDDF6
S11316008091BE002091AB00811111C081E08093D4
S1131610A3008093A000822F90E0FC01EE0FFF1F37
S11316208E0F9F1FFC01ED56FF4F808121C0822F3A
S113163090E0FC01EE0FFF1F8E0F9F1FFC01ED5683
S1131640FF4F80818C3078F01092A00091E090934D
S1131650A30090E00C976AE070E0D1D160939F0002
S11316608093A2000BC091E09093A0001092A3007D
S11316706AE098D180939F009093A200822F90E01B
S1131680FC01EE0FFF1F8E0F9F1FFC01ED56FF4F55
S113169081816AE087D18093A5009093A800089582
S11316A02091B100222399F08091AB0090E0AC012D
S11316B0440F551F840F951FFC01ED56FF4F3181D8
S11316C0230F21834BE360E08C569F4FD4DC1092B0
S11316D0A3001092A00081E08093A9008093A6004B
S11316E08091BE002091AB008823B9F0822F90E056
S11316F0FC01EE0FFF1F8E0F9F1FFC01ED56FF4FE5
S113170080818C3050F090E00C976AE070E077D1E3
S113171060939F008093A20011C0822F90E0FC018F
S1131720EE0FFF1F8E0F9F1FFC01ED56FF4F8081B0
S11317306AE038D180939F009093A200822F90E0BA
S1131740FC01EE0FFF1F8E0F9F1FFC01ED56FF4F94
S113175081816AE027D18093A5009093A800089521
S113176081E08093B0008093C000A8988091B1007C
S11317708823B1F08091B300813029F08091B200C8
S1131780811101C018D99091B3008091B100890FE3
S11317908093B30043E061E083EB90E06CDCC4D859
S11317A081E08093A90080939F008AE08093A20047
S11317B08093A5008091B3008093A800089583E0EE
S11317C08093B0008091B100882359F09091B400C7
S11317D0890F8093B40044E061E084EB90E04BDC3B
S11317E0A3D882E080939F008AE08093A200809334
S11317F0A5008091B4008093A80008958091B10061
S1131800882359F09091B500890F8093B50044E086
S113181061E085EB90E02FDC87D883E080939F0024
S11318208AE08093A2008093A5008091B500809304
S1131830A8000895CF93DF93D82FC62F70D080EDE2
S113184074D08D2F72D0CF3F59F08C2F6AE0AAD07C
S113185020E1829F900D1124892FDF91CF9165C0E3
S1131860DF91CF910895CF936FEFE4DF58D081EDEE
S11318705CD065D0C82F60D08C2FCF91089562E1E1
S113188087E0D8DF80E0EFDF87FF12C06CE082E002
S1131890D1DF6EE181E0CEDF60E080E0CBDF6CE0A1
S11318A085E0C8DF6FE184E0C5DF66E186E0C2CF92
S11318B008958FB7F894209191003091920030935D
S11318C0900020938F008FBF80918F0090919000A3
S11318D008951F920F920FB60F9211248F939F9326
S11318E08091910090919200019690939200809340
S11318F0910085E082BF9F918F910F900FBE0F9052
S11319001F90189583B7836083BF85E082BF89B732
S1131910816089BF089588E480B911B8089584EA84
S113192086BF06B607FEFDCF089583B984E886BF57
S113193006B607FEFDCF089584E986BF089584E8BE
S113194086BF06B607FEFDCF83B10895979A0000BF
S113195000000000000097980895979A0000000086
S11319600000000000000000000000000000000073
S113197097980895CF93DF93D82FC8E0D7FF02C07C
S1131980ECDF01C0E3DFDD0FC150C1F7DF91CF9180
S11319900895CF938F9ACCE080E0ECDFC150E1F75B
S11319A0CF910895991B79E004C0991F961708F008
S11319B0961B881F7A95C9F78095089587FB082E92
S11319C0062687FD819567FD6195ECDF0EF4919500
S11319D007FC81950895AA1BBB1B51E107C0AA1FF0
S11319E0BB1FA617B70710F0A61BB70B881F991FBC
S11319F05A95A9F780959095BC01CD01089597FB60
S1131A00072E16F4009406D077FD08D0E4DF07FC17
S1131A1005D03EF4909581959F4F089570956195FA
S1131A207F4F0895052E97FB16F400940FD057FDB1
S1131A3005D01AD007FC02D046F408C05095409552
S1131A40309521953F4F4F4F5F4F08959095809566
S1131A50709561957F4F8F4F9F4F0895B7FF26C0B4
S1131A6025D0821B930B0895A1E21A2EAA1BBB1B3F
S1131A70FD010DC0AA1FBB1FEE1FFF1FA217B30756
S1131A80E407F50720F0A21BB30BE40BF50B661F6C
S1131A90771F881F991F1A9469F760957095809530
S1131AA090959B01AC01BD01CF01089509D0A59F7C
S1131AB0900DB49F900DA49F800D911D1124089545
S1131AC0A29FB001B39FC001A39F01D0B29F700D2C
S1131AD0811D1124911D0895E199FECF9FBB8EBBFA
S1131AE0E09A99278DB30895A8E1B0E042E050E070
S1131AF012C0262FE199FECF9FBB8EBB2DBB0FB624
S1131B00F894E29AE19A0FBE01960895F2DF272F26
S1131B10F1CFDC01CB01FC01E199FECF06C0FFBB94
S1131B20EEBBE09A31960DB20D9241505040B8F799
S1091B300895F894FFCFB4
S10F1B36AE0003080904000507020601C4
S9030000FC
